:10000000C2C00000E0C00000DEC00000A8C20000C6
:10001000DAC00000D8C00000D6C00000D4C0000084
:10002000D2C00000D0C00000CEC00000CCC0000094
:10003000CAC00000C8C00000C6C00000C4C00000A4
:10004000C2C00000C0C00000BEC00000BCC00000B4
:1000500067C20000B8C00000B6C00000B4C0000015
:10006000B2C00000B0C00000AEC00000ACC00000D4
:10007000AAC00000A8C00000A6C00000A4C00000E4
:10008000A2C00000A0C000009EC000009CC00000F4
:100090009AC0000098C0000096C000009BC50000F8
:1000A00092C0000090C000008EC000008CC0000014
:1000B0008AC0000088C0000086C0000084C0000024
:1000C00082C0000080C0000048C500007CC0000065
:1000D0007AC0000078C0000076C0000074C0000044
:1000E00072C0000008065A065A065A065A065A06F0
:1000F0005A065A0608065A065A065A065A065A0652
:100100005A065A060A065A065A065A065A065A063F
:100110005A065A065A065A065A065A065A065A06DF
:100120005A065A060A065A065A065A065A065A061F
:100130005A065A065A065A065A065A065A065A06BF
:100140005A065A0656065A065A065A065A065A06B3
:100150005A065A0633065A065A065A065A065A06C6
:100160005A065A065A065A065A065A065A065A068F
:100170005A065A0627065A065A065A065A065A06B2
:100180005A065A06450611241FBECFEFD1E2DEBF44
:10019000CDBF00E00CBF12E0A0E0B2E0E2E8F9E180
:1001A00000E00BBF02C007900D92AE36B107D9F741
:1001B00022E0AEE6B2E001C01D92AB38B207E1F733
:1001C0004DD20C94BF0C1CCF8098ECE7F0E08081FE
:1001D0008064808380818F778083EAE7F0E080818C
:1001E000876880830895ECE7F0E0908121E030E0BB
:1001F00002C0220F331F8A95E2F7207E292B20832D
:10020000EAE7F0E0808180648083808186FDFDCF15
:10021000809178009091790008954FEF60E680E634
:100220005BD241E061E08BE257D2EA9AE9E6F0E086
:1002300080818062808380818F7E808344E064E05F
:100240008CE04AD241E061E08CE046C20895CF9252
:10025000DF92EF92FF920F931F93CF93DF93CDB76F
:10026000DEB72B970FB6F894DEBF0FBECDBFE98285
:10027000FA820B831C832D833E834F8358876987C3
:100280007A878B87E980FA8080E306D283FDFCCFF2
:10029000B70176956795769567957695679581E32D
:1002A00007D26E2D6295660F607E82E301D2602FC9
:1002B00085E3FED10023A1F07E0124E0E20EF11CD3
:1002C000CE01800F911DFC0134966F0116E3F701FA
:1002D00061917F01812FECD11F5FEC14FD04B9F710
:1002E000F6D12B960FB6F894DEBF0FBECDBFDF91CF
:1002F000CF911F910F91FF90EF90DF90CF900895D5
:100300008F929F92AF92BF92CF92DF92EF92FF9225
:100310000F931F93CF93DF93CDB7DEB72B970FB615
:10032000F894DEBF0FBECDBF4C0181E6B5D1A82E3B
:1003300082E6B2D1B12CAA0CBB1CAA0CBB1CAA0C25
:10034000BB1C829586958770A82A85E6A5D1082FC3
:100350008823A1F07E0124E0E20EF11CCE01800F83
:10036000911DFC0134966F0116E6812F95D1F7019E
:1003700081937F011F5FEC15FD05B9F740E061E057
:100380008CE2AAD1BA82A9820B838BE0FE0131965E
:10039000D40101900D928A95E1F7C4012B960FB616
:1003A000F894DEBF0FBECDBFDF91CF911F910F91AB
:1003B000FF90EF90DF90CF90BF90AF909F908F9085
:1003C0000895EF92FF920F931F93CF93DF93CDB7D2
:1003D000DEB72B970FB6F894DEBF0FBECDBF80916E
:1003E000700290917102892BC9F0F89410927102F9
:1003F0001092700283E4E82E89831A821C821D8287
:1004000082E08B83F12C02E010E020E03E814F81FE
:10041000588569857A858B851ADF78942B960FB677
:10042000F894DEBF0FBECDBFDF91CF911F910F912A
:10043000FF90EF900895E1E8F0E080818260808392
:100440001092850010928400EFE6F0E080818160D8
:100450008083109280020895CF93DF93CDB7DEB7EB
:100460002B970FB6F894DEBF0FBECDBF0F2EF7E06F
:10047000CF2EF2E0DF2EF02D80916E0290916F0270
:10048000892B09F444C080916E0290916F029F9372
:100490008F93DF92CF9241D6F89410926F02109210
:1004A0006E02CE0101962CDF0F900F900F900F90EF
:1004B00089819A818332910599F083339105F1F016
:1004C000439709F5E980FA800B811C812D813E81DB
:1004D0004F81588569857A858B85BCD2789417C001
:1004E000E980FA800B811C812D813E814F815885E6
:1004F00069857A858B85B9D1789409C08C81811101
:10050000FAD2789404C081E292E01AD6789470D03E
:1005100058DF8FE39CE90197F1F700C00000ACCFF2
:100520001F920F920FB60F9211248F939F93809179
:1005300080028F5F80938002809180028F3140F033
:1005400081E090E09093710280937002109280029B
:100550009F918F910F900FBE0F901F9018951F9233
:100560000F920FB60F9211248F939F9381E090E02A
:1005700090936F0280936E029F918F910F900FBEA8
:100580000F901F90189587E690E0AAD3C6D2BDD0F1
:1005900044DE40E060EE8FE09FD035D215DEEED233
:1005A00066D0BBD0D5D047DF9BD2C5D205C1089558
:1005B0000F931F93CF93DF93CAE0D0E000E010E0E9
:1005C00080E011DE080F111D8FE193E00197F1F734
:1005D00000C000002197A1F781E090E00A3F1105DB
:1005E00014F080E090E0DF91CF911F910F9108957A
:1005F000EF92FF920F931F93CF93DF93CDB7DEB7A8
:100600002B970FB6F894DEBF0FBECDBFD1DF892B7D
:10061000C1F083E4E82E89831A8281E08C838B8386
:10062000F12C01E011E02D813E814F8158856985D3
:100630007A858B850CDE8FE39CE90197F1F700C08A
:1006400000002B960FB6F894DEBF0FBECDBFDF9132
:10065000CF911F910F91FF90EF90089594DF65E87F
:1006600076E08DE796E00FD57894F6DEFECF7894AD
:100670000895CF93DF9300D0CDB7DEB790E599838F
:100680001A828B8363E0CE01019682D20F900F9085
:100690000F90DF91CF910895CF93C82F2F9883E0CB
:1006A00044D28C2F42D28C2F40D22F9ACF910895D2
:1006B000CF93DF93D82FC62F2F9882E036D28D2F7D
:1006C00034D28C2F32D22F9ADF91CF9108952F9868
:1006D00081E82BD22F9A08951F93CF93DF93182F81
:1006E000D62FC42F2F9885E020D2812F1ED28D2F98
:1006F0001CD28C2F1AD22F9ADF91CF911F9108957F
:100700002F9880EC12D22F9A0895FADF8FE39CE99C
:100710000197F1F700C000000895E1E0F1E080E109
:100720008083808182608083E2E0F1E0808180616B
:1007300080830895892B31F0E2E0F1E080818260CE
:1007400080830895E2E0F1E080818D7F80830895C9
:10075000E1E0F1E0808188668083E2E0F1E0808181
:1007600080668083109207010895E2E0F1E08081C5
:100770008F7D80838081877F80832FEF39EF80E0BA
:10078000215030408040E1F700C00000A6E0B1E019
:100790002C918081886080839FEF39EF80E09150B9
:1007A00030408040E1F700C000008C919081906261
:1007B000908390E0922B089581E090E0BBDF84E687
:1007C00058DF2FEF87EA91E6215080409040E1F713
:1007D00000C0000088EC4DDFC8DF89519C4F8F3C82
:1007E000974030F0C2DF89519C4F8F3C9740D0F743
:1007F00080E03FDF8FEF99EF20E081509040204074
:10080000E1F700C00000B1DF8093720290937302A1
:100810009F938F938CE392E09F938F937ED480E09D
:1008200090E088DF84E625DF8FEF97EA21E68150AC
:1008300090402040E1F700C0000097DF80937402F1
:10084000909375029F938F9383E592E09F938F938C
:1008500064D480E00EDF7ED18DB79EB708960FB6C8
:10086000F8949EBF0FBE8DBF08958F929F92AF9256
:10087000BF92CF92DF92EF92FF920F931F93CF938D
:10088000DF93CDB7DEB72B970FB6F894DEBF0FBE60
:10089000CDBF1C836ADFBC0180917202909173020C
:1008A0006817790794F47093730260937202861B41
:1008B000970B2091740230917502A901481B590BC6
:1008C000509375024093740214C0209174023091C9
:1008D0007502261737076CF47093750260937402E3
:1008E000AB01421B530B840F951F909373028093AF
:1008F00072028091720290917302681B790B072E2D
:10090000000C880B990BA1D227E635ED47EE5CE38E
:1009100028D368D24B015C018C810FEF10E0081BDB
:10092000110914D17C0116D106D108191909609159
:10093000760270917702600F711F70937702609357
:100940007602072E000C880B990B7FD22AE037ED38
:1009500043EA5CE306D34B015C01B701FF0C880B53
:10096000990B73D29B01AC01C501B401FAD26B01A2
:100970007C01B801110F880B990B67D223E333E395
:1009800043E35FE3EED29B01AC01C701B601C6D1E0
:1009900029D28B0161305FEF7507E4F06F3F71057D
:1009A00009F04CF46B5F7F4F6B307105B0F010169F
:1009B00011061CF008C00FEF10E080E090E0BADEF6
:1009C000802F57DE0DC081E090E0B4DE802F81954E
:1009D00050DE06C001E01FEFF6CF00E010E0F3CFDD
:1009E0002B960FB6F894DEBF0FBECDBFDF91CF912F
:1009F0001F910F91FF90EF90DF90CF90BF90AF903D
:100A00009F908F9008956B9AE0E9F0E080818E7F4F
:100A10008083808182608083A1E9B0E08C918861CD
:100A20008C9380818F7B80838081806880838C9190
:100A300085608C938C918D7F8C9388E391E090936B
:100A400097008093960087E190E0909399008093BF
:100A500098000895EF92FF920F931F93CF93DF9327
:100A6000CDB7DEB72B970FB6F894DEBF0FBECDBF64
:100A7000E982FA8289819A81439729F5822F20E1C0
:100A8000829FC00111246FEF70E0CED28AEF860FF3
:100A9000853038F487E190E0909399008093980036
:100AA00012C0613138F4615F70E070939900609317
:100AB000980009C087E190E0909399008093980096
:100AC00089E692E03DD32B960FB6F894DEBF0FBEB9
:100AD000CDBFDF91CF911F910F91FF90EF900895BF
:100AE000EAE0F1E0808180648083EBE0F1E08081E6
:100AF0008F7B80830895EBE0F1E0808180648083C8
:100B00002FEF89EF90E0215080409040E1F700C046
:100B1000000080818F7B8083089584B1876884B9C9
:100B200023988CB580658CBD08958EBD0DB407FEED
:100B3000FDCF8EB50895E1E2F1E08081826080838F
:100B4000E3E7F0E0808181608083089580917802FE
:100B500090E008951092780208951F920F920FB6B8
:100B60000F9211248F93809178028F5F8093780287
:100B70008F910F900FBE0F901F9018958CE080936F
:100B8000B8008FEF8093BB0084E08093BC00089591
:100B9000DC01ECEBF0E0908190FDFDCF60937B02F7
:100BA0008C9180937C0280FD0CC0623050F0FD017E
:100BB0003196ADE7B2E081E091919D938F5F68132C
:100BC000FBCF10927A0288EF8093060285EA809329
:100BD000BC0008951F920F920FB60F9211240BB60E
:100BE0000F922F933F938F939F93AF93BF93EF9366
:100BF000FF93E091B9008E2F90E0FC013897E1352A
:100C0000F10508F057C08827EE58FF4F8F4F1FC2DD
:100C100010927902E091790280917B02E81770F4DA
:100C200081E08E0F80937902F0E0E458FD4F8081DF
:100C30008093BB0085E88093BC0043C080917A021A
:100C4000816080937A0284E98093BC003AC0E0918D
:100C5000790281E08E0F809379028091BB00F0E0F1
:100C6000E458FD4F80832091790230E080917B022F
:100C700090E001972817390724F485EC8093BC0095
:100C800020C085E88093BC001CC08091BB00E0912F
:100C90007902F0E0E458FD4F808380917A02816010
:100CA00080937A0284E98093BC000BC085EA80932C
:100CB000BC0007C08091B9008093060284E0809355
:100CC000BC00FF91EF91BF91AF919F918F913F91A8
:100CD0002F910F900BBE0F900FBE0F901F90189585
:100CE0009093C5008093C40088E18093C100E2EC3A
:100CF000F0E080818E6080830895E0ECF0E09081E8
:100D000095FFFDCF8093C6000895E0ECF0E0808170
:100D10008823ECF78091C60008955058BB27AA2776
:100D20000ED0E5C0D6D030F0DBD020F031F49F3FBC
:100D300011F41EF4CBC00EF4E095E7FBC1C0E92F1F
:100D4000E7D080F3BA17620773078407950718F096
:100D500071F49EF5FFC00EF4E0950B2EBA2FA02D76
:100D60000B01B90190010C01CA01A0011124FF2758
:100D7000591B99F0593F50F4503E68F11A16F04053
:100D8000A22F232F342F4427585FF3CF4695379552
:100D90002795A795F0405395C9F77EF41F16BA0B17
:100DA000620B730B840BBAF09150A1F0FF0FBB1FC5
:100DB000661F771F881FC2F70EC0BA0F621F731F0E
:100DC000841F48F4879577956795B795F7959E3F6B
:100DD00008F0B3CF9395880F08F09927EE0F9795F9
:100DE0008795089504D06894B111B5C0089598D03E
:100DF00088F09F5790F0B92F9927B751A0F0D1F004
:100E0000660F771F881F991F1AF0BA95C9F712C08D
:100E1000B13081F09FD0B1E008959CC0672F782F4A
:100E20008827B85F39F0B93FCCF3869577956795F9
:100E3000B395D9F73EF490958095709561957F4F65
:100E40008F4F9F4F0895E89409C097FB3EF490950B
:100E50008095709561957F4F8F4F9F4F9923A9F093
:100E6000F92F96E9BB279395F69587957795679522
:100E7000B795F111F8CFFAF4BB0F11F460FF1BC066
:100E80006F5F7F4F8F4F9F4F16C0882311F096E9F9
:100E900011C0772321F09EE8872F762F05C06623A7
:100EA00071F096E8862F70E060E02AF09A95660F60
:100EB000771F881FDAF7880F9695879597F9089519
:100EC00097F99F6780E870E060E008959FEF80ECFD
:100ED000089500240A9416161706180609060895A0
:100EE00000240A9412161306140605060895092E06
:100EF0000394000C11F4882352F0BB0F40F4BF2B75
:100F000011F460FF04C06F5F7F4F8F4F9F4F0895B4
:100F100057FD9058440F551F59F05F3F71F04795AA
:100F2000880F97FB991F61F09F3F79F0879508958F
:100F3000121613061406551FF2CF4695F1DF08C0AE
:100F4000161617061806991FF1CF869571056105CB
:100F500008940895E894BB2766277727CB0197F973
:100F600008950BD0C4CFB5DF28F0BADF18F0952371
:100F700009F0A6CFABCF1124EECFCADFA0F3959F27
:100F8000D1F3950F50E0551F629FF001729FBB2770
:100F9000F00DB11D639FAA27F00DB11DAA1F649F1C
:100FA0006627B00DA11D661F829F2227B00DA11DCF
:100FB000621F739FB00DA11D621F839FA00D611D55
:100FC000221F749F3327A00D611D231F849F600D76
:100FD000211D822F762F6A2F11249F5750408AF0AF
:100FE000E1F088234AF0EE0FFF1FBB1F661F771F3B
:100FF000881F91505040A9F79E3F510570F060CF77
:10100000AACF5F3FECF3983EDCF386957795679522
:10101000B795F795E7959F5FC1F7FE2B880F911D58
:101020009695879597F9089597FB072E16F40094E7
:1010300006D077FD08D013D007FC05D03EF490957C
:1010400081959F4F0895709561957F4F0895EE0F9C
:10105000FF1F881F8BBF0790F691E02D1994AA1BE4
:10106000BB1B51E107C0AA1FBB1FA617B70710F093
:10107000A61BB70B881F991F5A95A9F780959095C5
:10108000BC01CD0108950F931F93CF93DF93009779
:1010900031F46115710519F480E090E039C08B01DD
:1010A000EC016EE070E081E090E077D2FC01892BEA
:1010B00099F380E883830115110571F01387028786
:1010C00081E883838091810290918202892B21F4AF
:1010D000F0938202E09381022097C9F0D187C08704
:1010E0008381826083838091830290918402892B23
:1010F00071F4F0938402E0938302809185029091D1
:101100008602892B21F4F0938602E0938502CF01B9
:10111000DF91CF911F910F910895CF93DF93CDB7BA
:10112000DEB7AE014A5F5F4FFA0161917191AF0185
:10113000809183029091840233D0DF91CF91089502
:101140000F931F93CF93DF93E0918302F09184027A
:10115000238121FF1BC08C01D0E0C0E0F801819108
:101160008F016091830270918402DB011896ED91EA
:10117000FC911997882331F01995892B79F3DFEFCA
:10118000CFEFECCF8AE01995892B19F08FEF9FEF05
:1011900002C08D2F9C2FDF91CF911F910F91089549
:1011A0002F923F924F925F926F927F928F929F9277
:1011B000AF92BF92CF92DF92EF92FF920F931F9365
:1011C000CF93DF93CDB7DEB72B970FB6F894DEBF82
:1011D0000FBECDBF6C017B018A01FC011782168214
:1011E000838181FFBFC1CE0101963C01F60193814D
:1011F000F70193FD859193FF81917F01882309F485
:10120000ADC1853239F493FD859193FF81917F01C2
:10121000853221F4B60190E018D3E8CF912C212C2F
:10122000312CFFE1F315D8F08B3279F038F48032AD
:1012300079F08332A1F4232D20611DC08D3261F03D
:10124000803369F4232D216016C0832D8260382EEF
:10125000E32DE4603E2E2AC0F32DF8601DC037FC5C
:101260002DC020ED280F2A3040F08E32B9F436FC24
:1012700075C1232D2064322E19C036FE06C08AE0C7
:10128000989E200D1124922E11C0EAE02E9E200D72
:101290001124222EF32DF0623F2E08C08C3621F44B
:1012A000832D8068382E02C0883641F4F70193FD03
:1012B000859193FF81917F018111B3CF982F9F7DFD
:1012C0009554933028F40C5F1F4F9FE399830DC012
:1012D000833631F0833771F0833509F055C020C073
:1012E000F801808189830E5F1F4F88248394912C9D
:1012F000530112C02801F2E04F0E511CF801A080EA
:10130000B18036FE03C0692D70E002C06FEF7FEF41
:10131000C50190D24C018201F32DFF773F2E15C0FD
:10132000280122E0420E511CF801A080B18036FE57
:1013300003C0692D70E002C06FEF7FEFC50168D276
:101340004C01F32DF0683F2E820133FC19C0822D31
:1013500090E088169906A0F4B60180E290E075D27C
:101360002A94F5CFF50137FC859137FE81915F0115
:10137000B60190E06AD221102A9421E0821A9108E5
:101380008114910479F7E1C0843611F0893639F57A
:10139000F80137FE07C060817181828193810C5F03
:1013A0001F4F08C060817181072E000C880B990BBC
:1013B0000E5F1F4FF32DFF763F2E97FF09C09095CC
:1013C0008095709561957F4F8F4F9F4FF0683F2EAE
:1013D0002AE030E0A30175D2882E861844C08537F4
:1013E00031F4232D2F7EB22E2AE030E025C0932D3C
:1013F000997FB92E8F36C1F018F4883579F0AEC0D8
:10140000803719F0883721F0A9C0E92FE061BE2E9E
:10141000B4FE0DC0FB2DF460BF2E09C034FE0AC01F
:10142000292F2660B22E06C028E030E005C020E15A
:1014300030E002C020E132E0F801B7FE07C0608171
:101440007181828193810C5F1F4F06C06081718121
:1014500080E090E00E5F1F4FA30133D2882E8618E4
:10146000FB2DFF773F2E36FE0DC0232D2E7FA22EA3
:10147000891458F434FE0BC032FC09C0832D8E7ED3
:10148000A82E05C0B82CA32C03C0B82C01C0B92CC1
:10149000A4FE0FC0FE01E80DF11D8081803321F410
:1014A0009A2D997EA92E09C0A2FE06C0B394B394CA
:1014B00004C08A2D867809F0B394A3FC10C0A0FE66
:1014C00006C0B21480F4280C922C9B180DC0B214E4
:1014D00058F4B60180E290E0B8D1B394F8CFB214DA
:1014E00018F42B1802C0982C212CA4FE0FC0B601B2
:1014F00080E390E0AAD1A2FE16C0A1FC03C088E759
:1015000090E002C088E590E0B6010CC08A2D867894
:1015100051F0A1FE02C08BE201C080E2A7FC8DE287
:10152000B60190E092D1891430F4B60180E390E0E6
:101530008CD19A94F8CF8A94F301E80DF11D808143
:10154000B60190E082D18110F6CF222009F44ECE70
:10155000B60180E290E079D12A94F7CFF601868136
:10156000978102C08FEF9FEF2B960FB6F894DEBFE6
:101570000FBECDBFDF91CF911F910F91FF90EF90E4
:10158000DF90CF90BF90AF909F908F907F906F90A3
:101590005F904F903F902F9008950F931F93CF939C
:1015A000DF93869F8001879F100D969F100D112459
:1015B000C8010DD0EC01009721F0A80160E070E0B7
:1015C00032D1CE01DF91CF911F910F9108950F93EA
:1015D0001F93CF93DF938230910510F482E090E067
:1015E000E0918902F0918A0220E030E0A0E0B0E0D2
:1015F000309719F1408151810281138148175907B1
:10160000C8F08417950769F4109731F012960C937F
:10161000129713961C9327C00093890210938A0295
:1016200022C02115310519F04217530718F49A0109
:10163000BD01EF01DF01F801DBCF21153105F9F024
:10164000281B390B2430310580F48A819B81611578
:10165000710521F0FB019383828304C090938A0279
:1016600080938902FE01329644C0FE01E20FF31F0F
:101670008193919322503109398328833AC0209174
:10168000870230918802232B41F42091020230918D
:101690000302309388022093870220910002309148
:1016A00001022115310541F42DB73EB740910402E6
:1016B00050910502241B350BE0918702F0918802BE
:1016C000E217F307A0F42E1B3F0B2817390778F019
:1016D000AC014E5F5F4F2417350748F04E0F5F1F78
:1016E00050938802409387028193919302C0E0E077
:1016F000F0E0CF01DF91CF911F910F910895CF932B
:10170000DF93009709F481C0FC01329713821282A3
:10171000A0918902B0918A02109781F420813181D1
:10172000820F931F20918702309188022817390772
:1017300051F5F0938802E093870267C0ED0120E045
:1017400030E0CE17DF0740F44A815B819E014115EE
:101750005105F1F0EA01F5CFD383C2834081518175
:10176000840F951FC817D90759F488819981840F70
:10177000951F0296918380838A819B8193838283C4
:101780002115310529F4F0938A02E09389023DC0C6
:10179000E901FB83EA8349915991C40FD51FEC17E6
:1017A000FD0761F480819181840F951F0296E90104
:1017B00099838883828193819B838A83E0E0F0E030
:1017C00012968D919C911397009719F0FD01DC0101
:1017D000F7CF8D919C9111979D012E5F3F4F820F06
:1017E000931F20918702309188022817390769F4E6
:1017F000309729F410928A021092890202C0138253
:101800001282B0938802A0938702DF91CF9108954E
:10181000FC010590615070400110D8F780959095BB
:101820008E0F9F1F0895DC0101C06D934150504001
:10183000E0F70895FC016150704001900110D8F765
:10184000809590958E0F9F1F08950F931F93CF93B0
:10185000DF93FB01238121FD03C08FEF9FEF2CC09D
:1018600022FF16C0468157812481358142175307D4
:1018700044F4A081B1819D012F5F3F4F31832083CC
:101880008C93268137812F5F3F4F3783268314C087
:101890008B01EC01FB010084F185E02D1995892B6A
:1018A000E1F6D80116968D919C911797019617969F
:1018B0009C938E931697CE01DF91CF911F910F913C
:1018C0000895FA01AA27283051F1203181F1E894D6
:1018D0006F936E7F6E5F7F4F8F4F9F4FAF4FB1E023
:1018E0003ED0B4E03CD0670F781F891F9A1FA11D1E
:1018F000680F791F8A1F911DA11D6A0F711D811D1F
:10190000911DA11D20D009F468943F912AE0269FE3
:1019100011243019305D3193DEF6CF010895462F42
:101920004770405D4193B3E00FD0C9F7F6CF462F23
:101930004F70405D4A3318F0495D31FD405241938C
:1019400002D0A9F7EACFB4E0A69597958795779549
:101950006795BA95C9F700976105710508959B01D0
:10196000AC010A2E06945795479537952795BA9559
:10197000C9F7620F731F841F951FA01D0895F89467
:02198000FFCF97
:1019820000008B022000F843616E206D6573736165
:1019920067652072656365697665643A2025640A25
:1019A2000044656661756C742000456E636F646502
:1019B2007256616C75653A2025640A00456E636F44
:1019C2006465724C696D697452696768743A20255E
:1019D200640A00456E636F6465724C696D69744C8C
:0E19E2006566743A2025640A00454C534500A2
:00000001FF
